:1000000010C020C0BDC11EC0B1C11CC01BC01AC0E1
:1000100019C018C017C016C015C014C013C012C034
:1000200011C011241FBECFEDCDBF10E0A0E6B0E09F
:10003000E8E9F3E002C005900D92A237B107D9F7C5
:1000400079D1A8C1DDCF8FB980E48EB98BE101C031
:100050008DB9769BFDCF8FB10895FC0190E030E41F
:100060002BE10AC080818FB93EB901C02DB9769BC2
:10007000FDCF8FB19F5F31969617A0F30895FC01D5
:1000800090E030E42BE109C01FB83EB901C02DB9A2
:10009000769BFDCF8FB181939F5F9617A8F308954C
:1000A000D49AD59AD698DE9A089585B7877E8061CE
:1000B00085BF85B7806285BF889585B78F7D85BFF1
:1000C00008958A3008F089E0982F9770883008F0FA
:1000D0009062906184B7877F84BF81B5886181BD5C
:1000E00091BD81B5806481BD0895F89484B7877F00
:1000F00084BF81B5886181BD11BC78940895D0DF3B
:1001000088B3836088BB8BB387608BBB8BB7806100
:100110008BBF939A78940895BA9AD79AC298DF9A27
:100120000895DF9887E08FB980E48EB98BE101C034
:100130008DB9769BFDCF8FB18FEF8FB980E48EB9EB
:100140008BE101C08DB9769BFDCF8FB1DF9A089509
:10015000DF9887E08FB980E48EB98BE101C08DB95B
:10016000769BFDCF8FB18FEF8FB980E48EB98BE195
:1001700001C08DB9769BFDCF8FB1DF9A8074089551
:10018000DF9887E08FB980E48EB98BE101C08DB92B
:10019000769BFDCF8FB18FEF8FB980E48EB98BE165
:1001A00001C08DB9769BFDCF8FB1DF9A8071089524
:1001B000DF988F7180628FB980E48EB98BE101C0C6
:1001C0008DB9769BFDCF8FB16FB980E48EB98BE18D
:1001D00001C08DB9769BFDCF8FB1DF9A08959C0148
:1001E000DF9881E68FB980E48EB98BE101C08DB9CB
:1001F000769BFDCF8FB1C90165E041DFDF9A87E0D3
:1002000060E4D6DF0895DF988F718FB980E48EB9EE
:100210008BE101C08DB9769BFDCF8FB1CB01642FEF
:100220002EDFDF9A0895DF988F7180628FB980E4A6
:100230008EB98BE101C08DB9769BFDCF8FB1CB011B
:10024000642F0BDFDF9A08950F931F9385E065E01D
:10025000AFDF81E165E0ACDF82E165E0A9DF84E04A
:1002600063E1A6DF00E610E08AE0B80145E0DBDFED
:100270008BE066E670E045E0D6DF80E1B80145E05E
:10028000D2DF82E063E094DF80E06AE091DF1F91DB
:100290000F9108950F931F93CF93DF9380E06AE04F
:1002A00087DFDF9881EE8FB980E48EB98BE101C0E2
:1002B0008DB9769BFDCF8FB1DF9ADF9880EA8FB939
:1002C00080E48EB98BE101C08DB9769BFDCF8FB1F3
:1002D0008CE690E065E0C1DEDF9AC29A85E08A95FF
:1002E000F1F7C298C0E0D0E006EA15E017C0802F11
:1002F0008A95F1F716DF84FF08C087E060E158DFD8
:10030000C29A812F8A95F1F7C2982196CA30D105F9
:1003100029F487E060E14CDF80E007C002DF85FF61
:10032000E6CF87E060E244DF81E0DF91CF911F916B
:100330000F910895CF93DF93E2DEEEDE84ED90E33C
:100340000197F1F781DFCEEED2E080E068E030DFA8
:10035000ACDECBDECB9B07C080E06AE029DFCE01BC
:100360000197F1F797DF88E0ACDEEFCF1F920F9295
:100370000FB60F9211240F900FBE0F901F9018957B
:100380001F920F920FB60F9211240F900FBE0F9075
:080390001F901895F894FFCFAF
:10039800706972317300706972316300706972310B
:0203A8006300F0
:00000001FF
