:100000000EC026C025C024C023C022C021C020C0ED
:100010001FC01EC01DC01CC01BC01AC019C01124A7
:100020001FBECFEDCDBF10E0A0E6B0E0EEE1F3E003
:1000300002C005900D92AC36B107D9F710E0ACE6DE
:10004000B0E001C01D92AD36B107E1F733D165C113
:10005000D7CF8FB980E48EB98BE101C08DB9769B83
:10006000FDCF8FB10895FC0190E030E42BE10AC090
:1000700080818FB93EB901C02DB9769BFDCF8FB17C
:100080009F5F31969617A0F30895FC0190E030E44D
:100090002BE109C01FB83EB901C02DB9769BFDCF39
:1000A0008FB181939F5F9617A8F30895BA9AB99A72
:1000B000B898C09A0895FADF089587B3886187BB1E
:1000C000C398C49A0895C49882EE8FB980E48EB91B
:1000D0008BE101C08DB9769BFDCF8FB1C49AC498D6
:1000E00081EE8FB980E48EB98BE101C08DB9769B2A
:1000F000FDCF8FB1C49A0895C49887E08FB980E48A
:100100008EB98BE101C08DB9769BFDCF8FB18FEF9A
:100110008FB980E48EB98BE101C08DB9769BFDCF9C
:100120008FB1C49A0895C49887E08FB980E48EB9DE
:100130008BE101C08DB9769BFDCF8FB18FEF8FB969
:1001400080E48EB98BE101C08DB9769BFDCF8FB174
:10015000C49A80740895C49887E08FB980E48EB9FA
:100160008BE101C08DB9769BFDCF8FB18FEF8FB939
:1001700080E48EB98BE101C08DB9769BFDCF8FB144
:10018000C49A80710895C4988F7180628FB980E499
:100190008EB98BE101C08DB9769BFDCF8FB16FB960
:1001A00080E48EB98BE101C08DB9769BFDCF8FB114
:1001B000C49A08959C01C49881E68FB980E48EB9F1
:1001C0008BE101C08DB9769BFDCF8FB1C90165E090
:1001D0005CDFC49A87E060E4D6DF0895C4988F712D
:1001E0008FB980E48EB98BE101C08DB9769BFDCFCC
:1001F0008FB1CB01642F49DFC49A0895C4988F71E1
:1002000080628FB980E48EB98BE101C08DB9769B95
:10021000FDCF8FB1CB01642F26DFC49A08950F93D1
:100220001F9385E062E0AFDF81E165E0ACDF00E6CF
:1002300010E08AE0B80145E0E1DF80E1B80145E087
:10024000DDDF82E061E09FDF10926C0080E06AE019
:100250009ADF1F910F9108951F93CF93DF93EC01C5
:10026000162F10926C0080E06AE08DDFC49881EE5A
:100270008FB980E48EB98BE101C08DB9769BFDCF3B
:100280008FB1C49AC49880EA8FB980E48EB98BE1AB
:1002900001C08DB9769BFDCF8FB1CE01612FE3DE1A
:1002A000C49AC39A85E08A95F1F7C398DF91CF91FC
:1002B0001F910895EF92FF920F931F93DF93CF93B7
:1002C00000D000D00F92CDB7DEB7F0DEF6DE84EDC1
:1002D00090E30197F1F7A3DFDE011196E6E6F0E087
:1002E00085E001900D928150E1F77E010894E11CB8
:1002F000F11C09E110E0E7DEC70165E0ADDF80E158
:1003000097E2F8013197F1F70197D9F724DF8823B5
:0E03100091F387E060E137DFEECFF894FFCF86
:0C031E00636C6E7431000E7B3F173600DC
:00000001FF
