:100000000C9434000C9449000C9449000C94490061
:100010000C9449000C9449000C9449000C9449003C
:100020000C9449000C9449000C9449000C9449002C
:100030000C9449000C9449000C9449000C9449001C
:100040000C9449000C9449000C9449000C9449000C
:100050000C9449000C9449000C9449000C944900FC
:100060000C9449000C94490011241FBECFEFD8E036
:10007000DEBFCDBF11E0A0E0B1E0E8E3F3E002C0F5
:1000800005900D92A231B107D9F70E9476010C9428
:100090009A010C9400008EBD0DB407FEFDCF8EB505
:1000A0000895FC0190E008C080818EBD0DB407FE6C
:1000B000FDCF8EB59F5F31969617B0F30895FC0182
:1000C00090E007C01EBC0DB407FEFDCF8EB5819336
:1000D0009F5F9617B8F30895259A239A24982C9A2F
:1000E00081E58CBD089578940895219A229A2998E3
:1000F0002A9A0E946C0008952A9887E08EBD0DB45C
:1001000007FEFDCF8EB58FEF8EBD0DB407FEFDCF80
:100110008EB52A9A08952A9887E08EBD0DB407FE01
:10012000FDCF8EB58FEF8EBD0DB407FEFDCF8EB522
:100130002A9A807408952A9887E08EBD0DB407FE30
:10014000FDCF8EB58FEF8EBD0DB407FEFDCF8EB502
:100150002A9A807108952A988F7180628EBD0DB49D
:1001600007FEFDCF8EB56EBD0DB407FEFDCF8EB57B
:100170002A9A08959C012A9881E68EBD0DB407FE47
:10018000FDCF8EB5C90165E00E945F002A9A87E025
:1001900060E40E94AB0008952A988F718EBD0DB463
:1001A00007FEFDCF8EB5CB01642F0E945F002A9A17
:1001B00008952A988F7180628EBD0DB407FEFDCF21
:1001C0008EB5FB0190E008C080818EBD0DB407FEA6
:1001D000FDCF8EB59F5F31969417B0F32A9A08959C
:1001E0000F931F9385E065E00E94AB0081E165E01D
:1001F0000E94AB0082E165E00E94AB0084E063E115
:100200000E94AB0000E011E08AE0B80145E00E94E6
:10021000D9008BE066E071E045E00E94D90080E102
:10022000B80145E00E94D90082E063E00E94AB0083
:1002300080E06AE00E94AB001F910F9108950F9338
:100240001F93CF93DF9380E06AE00E94AB002A986F
:1002500081EE8EBD0DB407FEFDCF8EB52A9A2A9889
:1002600080EA8EBD0DB407FEFDCF8EB5ECE0F1E067
:1002700080818EBD0DB407FEFDCF8EB5319681E035
:10028000E131F807A9F72A9A299A85E08A95F1F7CA
:100290002998C0E0D0E006EA15E01AC0802F8A95C0
:1002A000F1F70E947C0084FF09C087E060E10E94B2
:1002B000AB00299A812F8A95F1F729982196CA30A7
:1002C000D10531F487E060E10E94AB0080E009C015
:1002D0000E947C0085FFE2CF87E060E20E94AB00D5
:1002E00081E0DF91CF911F910F910895CF93DF931C
:1002F00078940E94750084ED90E30197F1F70E94D5
:10030000F00020E137E2C9E1D0E005C0CE0101975D
:10031000F1F72150304021153105C1F70E941F012E
:1003200088E893E1FE013197F1F70197D9F720E1D1
:0803300037E2ECCFF894FFCF97
:10033800706972317300706972316300706972316B
:02034800630050
:00000001FF
