:1000000010C028C027C026C025C024C023C022C0DD
:100010007EC120C01FC01EC01DC01CC01BC01AC096
:1000200019C011241FBECFEDCDBF10E0A0E6B0E097
:10003000E4EBF3E002C005900D92AC36B107D9F7BE
:1000400010E0ACE6B0E001C01D92A137B107E1F7C6
:100050006AD1AEC1D5CF8FB980E48EB98BE101C032
:100060008DB9769BFDCF8FB10895FC0190E030E40F
:100070002BE10AC080818FB93EB901C02DB9769BB2
:10008000FDCF8FB19F5F31969617A0F30895FC01C5
:1000900090E030E42BE109C01FB83EB901C02DB992
:1000A000769BFDCF8FB181939F5F9617A8F308953C
:1000B000D49AD59AD698DE9A089585B7877E8061BE
:1000C00085BF85B7806285BF889585B78F7D85BFE1
:1000D00008958A3008F089E0982F9770883008F0EA
:1000E0009062906184B7877F84BF81B5886181BD4C
:1000F00091BD81B5806481BD0895F89484B7877FF0
:1001000084BF81B5886181BD11BC78940895D0DF2A
:10011000D39A88B3836088BB8BB387608BBB609AAC
:1001200078940895BA9AD79AC298DF9A0895DF987A
:1001300087E08FB980E48EB98BE101C08DB9769BE1
:10014000FDCF8FB18FEF8FB980E48EB98BE101C005
:100150008DB9769BFDCF8FB1DF9A0895DF9887E048
:100160008FB980E48EB98BE101C08DB9769BFDCF4C
:100170008FB18FEF8FB980E48EB98BE101C08DB95B
:10018000769BFDCF8FB1DF9A80740895DF9887E06A
:100190008FB980E48EB98BE101C08DB9769BFDCF1C
:1001A0008FB18FEF8FB980E48EB98BE101C08DB92B
:1001B000769BFDCF8FB1DF9A80710895DF988F71A4
:1001C00080628FB980E48EB98BE101C08DB9769BD6
:1001D000FDCF8FB16FB980E48EB98BE101C08DB9CD
:1001E000769BFDCF8FB1DF9A08959C01DF9881E661
:1001F0008FB980E48EB98BE101C08DB9769BFDCFBC
:100200008FB1C90165E043DFDF9A87E060E4D6DFA4
:100210000895DF988F718FB980E48EB98BE101C0AA
:100220008DB9769BFDCF8FB1CB01642F30DFDF9A84
:100230000895DF988F7180628FB980E48EB98BE169
:1002400001C08DB9769BFDCF8FB1CB01642F0DDF3F
:10025000DF9A08950F931F9385E065E0AFDF81E19A
:1002600065E0ACDF82E165E0A9DF84E063E1A6DF61
:1002700000E610E08AE0B80145E0DBDF8BE066E6EF
:1002800070E045E0D6DF80E1B80145E0D2DF82E0F2
:1002900063E094DF80E06AE091DF1F910F910895A1
:1002A0000F931F9380E06BE089DFC29A10926C007D
:1002B00010926D0010926E0010926F0010927000FC
:1002C00010E006EA09C0802F8A95F1F71F5F143607
:1002D00019F4C29880E018C02ADF86FFF4CFC298D4
:1002E000DF9881E68FB980E48EB98BE101C08DB9CA
:1002F000769BFDCF8FB18CE690E065E0C8DEDF9A9B
:1003000087E060E45BDF81E01F910F9108951F9209
:100310000F920FB60F921124DB981EBC0F900FBEE8
:100320000F901F901895DF92EF92FF920F931F93FB
:10033000EEDEF8DE84ED90E30197F1F78BDF22EE3D
:10034000D22E90E4E92E8BE1F82E03E513E080E055
:100350006BE034DFDF98DFB8EEB801C0FDB8769B04
:10036000FDCF8FB1DF9AC29A03C0802F8A95F1F733
:10037000DEDE86FFFACFC29893DF8CE690E060E67F
:1003800070E045E050E007D0009709F7DB9A1DBC0C
:100390001CBC1EBDDCCFFB01DC0104C08D910190B3
:1003A000801921F441505040C8F7881B990B0895DB
:0403B000F894FFCFEF
:0C03B4007069723163007069723173006F
:00000001FF
